{
  "contractName": "VotingMachine",
  "abi": [
    {
      "inputs": [],
      "stateMutability": "nonpayable",
      "type": "constructor"
    },
    {
      "anonymous": false,
      "inputs": [
        {
          "indexed": false,
          "internalType": "uint256",
          "name": "id",
          "type": "uint256"
        },
        {
          "indexed": false,
          "internalType": "string",
          "name": "symbol",
          "type": "string"
        }
      ],
      "name": "CandidateList",
      "type": "event"
    },
    {
      "anonymous": false,
      "inputs": [
        {
          "indexed": false,
          "internalType": "string",
          "name": "data",
          "type": "string"
        }
      ],
      "name": "FingerPrint",
      "type": "event"
    },
    {
      "anonymous": false,
      "inputs": [
        {
          "indexed": false,
          "internalType": "uint256",
          "name": "voterId",
          "type": "uint256"
        }
      ],
      "name": "VoterRegister",
      "type": "event"
    },
    {
      "inputs": [],
      "name": "CandidateCount",
      "outputs": [
        {
          "internalType": "uint256",
          "name": "",
          "type": "uint256"
        }
      ],
      "stateMutability": "view",
      "type": "function",
      "constant": true
    },
    {
      "inputs": [
        {
          "internalType": "uint256",
          "name": "",
          "type": "uint256"
        }
      ],
      "name": "CandidateVoteCount",
      "outputs": [
        {
          "internalType": "uint256",
          "name": "",
          "type": "uint256"
        }
      ],
      "stateMutability": "view",
      "type": "function",
      "constant": true
    },
    {
      "inputs": [],
      "name": "Owner",
      "outputs": [
        {
          "internalType": "address",
          "name": "",
          "type": "address"
        }
      ],
      "stateMutability": "view",
      "type": "function",
      "constant": true
    },
    {
      "inputs": [],
      "name": "TokenName",
      "outputs": [
        {
          "internalType": "string",
          "name": "",
          "type": "string"
        }
      ],
      "stateMutability": "view",
      "type": "function",
      "constant": true
    },
    {
      "inputs": [],
      "name": "TotalVoteCount",
      "outputs": [
        {
          "internalType": "uint256",
          "name": "",
          "type": "uint256"
        }
      ],
      "stateMutability": "view",
      "type": "function",
      "constant": true
    },
    {
      "inputs": [],
      "name": "VoterCount",
      "outputs": [
        {
          "internalType": "uint256",
          "name": "",
          "type": "uint256"
        }
      ],
      "stateMutability": "view",
      "type": "function",
      "constant": true
    },
    {
      "inputs": [
        {
          "internalType": "string",
          "name": "symbol",
          "type": "string"
        }
      ],
      "name": "AddCandidate",
      "outputs": [],
      "stateMutability": "nonpayable",
      "type": "function"
    },
    {
      "inputs": [
        {
          "internalType": "string",
          "name": "fingerprint",
          "type": "string"
        }
      ],
      "name": "AddVoter",
      "outputs": [],
      "stateMutability": "nonpayable",
      "type": "function"
    },
    {
      "inputs": [],
      "name": "Reset",
      "outputs": [],
      "stateMutability": "nonpayable",
      "type": "function"
    },
    {
      "inputs": [
        {
          "internalType": "uint256",
          "name": "voterID",
          "type": "uint256"
        }
      ],
      "name": "VerifyVoter",
      "outputs": [],
      "stateMutability": "nonpayable",
      "type": "function"
    },
    {
      "inputs": [
        {
          "internalType": "uint256",
          "name": "_candidate",
          "type": "uint256"
        },
        {
          "internalType": "uint256",
          "name": "_voter",
          "type": "uint256"
        }
      ],
      "name": "Vote",
      "outputs": [],
      "stateMutability": "nonpayable",
      "type": "function"
    }
  ],
  "bytecode": "0x608060405266038d7ea4c67fff6004556040518060400160405280600481526020017f566f7465000000000000000000000000000000000000000000000000000000008152506007908162000055919062000325565b503480156200006357600080fd5b5033600860006101000a81548173ffffffffffffffffffffffffffffffffffffffff021916908373ffffffffffffffffffffffffffffffffffffffff1602179055506200040c565b600081519050919050565b7f4e487b7100000000000000000000000000000000000000000000000000000000600052604160045260246000fd5b7f4e487b7100000000000000000000000000000000000000000000000000000000600052602260045260246000fd5b600060028204905060018216806200012d57607f821691505b602082108103620001435762000142620000e5565b5b50919050565b60008190508160005260206000209050919050565b60006020601f8301049050919050565b600082821b905092915050565b600060088302620001ad7fffffffffffffffffffffffffffffffffffffffffffffffffffffffffffffffff826200016e565b620001b986836200016e565b95508019841693508086168417925050509392505050565b6000819050919050565b6000819050919050565b60006200020662000200620001fa84620001d1565b620001db565b620001d1565b9050919050565b6000819050919050565b6200022283620001e5565b6200023a62000231826200020d565b8484546200017b565b825550505050565b600090565b6200025162000242565b6200025e81848462000217565b505050565b5b8181101562000286576200027a60008262000247565b60018101905062000264565b5050565b601f821115620002d5576200029f8162000149565b620002aa846200015e565b81016020851015620002ba578190505b620002d2620002c9856200015e565b83018262000263565b50505b505050565b600082821c905092915050565b6000620002fa60001984600802620002da565b1980831691505092915050565b6000620003158383620002e7565b9150826002028217905092915050565b6200033082620000ab565b67ffffffffffffffff8111156200034c576200034b620000b6565b5b62000358825462000114565b620003658282856200028a565b600060209050601f8311600181146200039d576000841562000388578287015190505b62000394858262000307565b86555062000404565b601f198416620003ad8662000149565b60005b82811015620003d757848901518255600182019150602085019450602081019050620003b0565b86831015620003f75784890151620003f3601f891682620002e7565b8355505b6001600288020188555050505b505050505050565b6112f9806200041c6000396000f3fe608060405234801561001057600080fd5b50600436106100a95760003560e01c80637e54b8e2116100715780637e54b8e21461012c57806387eb0e58146101485780638dd32e1514610178578063b4a99a4e14610196578063b6d7855a146101b4578063ba5a958a146101d2576100a9565b80632e46fb9a146100ae57806331b2606d146100cc57806333952ef9146100ea578063540ed111146101065780636423db3414610122575b600080fd5b6100b66101ee565b6040516100c39190610914565b60405180910390f35b6100d46101f4565b6040516100e19190610914565b60405180910390f35b61010460048036038101906100ff919061096f565b6101fa565b005b610120600480360381019061011b91906109af565b610322565b005b61012a6104be565b005b61014660048036038101906101419190610b22565b6105f5565b005b610162600480360381019061015d91906109af565b6106f6565b60405161016f9190610914565b60405180910390f35b61018061070e565b60405161018d9190610914565b60405180910390f35b61019e610714565b6040516101ab9190610bac565b60405180910390f35b6101bc61073a565b6040516101c99190610c46565b60405180910390f35b6101ec60048036038101906101e79190610b22565b6107c8565b005b60045481565b60065481565b600860009054906101000a900473ffffffffffffffffffffffffffffffffffffffff1673ffffffffffffffffffffffffffffffffffffffff163373ffffffffffffffffffffffffffffffffffffffff161461025457600080fd5b6001600082815260200190815260200160002060009054906101000a900460ff16156102b5576040517f08c379a00000000000000000000000000000000000000000000000000000000081526004016102ac90610cb4565b60405180910390fd5b6003600083815260200190815260200160002060008154809291906102d990610d03565b9190505550600180600083815260200190815260200160002060006101000a81548160ff02191690831515021790555060016006546103189190610d4b565b6006819055505050565b600860009054906101000a900473ffffffffffffffffffffffffffffffffffffffff1673ffffffffffffffffffffffffffffffffffffffff163373ffffffffffffffffffffffffffffffffffffffff16146103b2576040517f08c379a00000000000000000000000000000000000000000000000000000000081526004016103a990610df1565b60405180910390fd5b6002600082815260200190815260200160002060009054906101000a900460ff16610412576040517f08c379a000000000000000000000000000000000000000000000000000000000815260040161040990610e5d565b60405180910390fd5b6001600082815260200190815260200160002060009054906101000a900460ff1615610473576040517f08c379a000000000000000000000000000000000000000000000000000000000815260040161046a90610cb4565b60405180910390fd5b7f36c340629b1205af087d3b147d43f4611dfffbe3f551a220b4be87bd0a127b0a6000808381526020019081526020016000206040516104b39190610f76565b60405180910390a150565b600860009054906101000a900473ffffffffffffffffffffffffffffffffffffffff1673ffffffffffffffffffffffffffffffffffffffff163373ffffffffffffffffffffffffffffffffffffffff161461054e576040517f08c379a000000000000000000000000000000000000000000000000000000000815260040161054590610df1565b60405180910390fd5b600066038d7ea4c67fff90505b600160045461056a9190610d4b565b8110156105b05760006001600083815260200190815260200160002060006101000a81548160ff02191690831515021790555080806105a890610d03565b91505061055b565b5060005b6005548110156105ea576000600360008381526020019081526020016000208190555080806105e290610d03565b9150506105b4565b506000600681905550565b600860009054906101000a900473ffffffffffffffffffffffffffffffffffffffff1673ffffffffffffffffffffffffffffffffffffffff163373ffffffffffffffffffffffffffffffffffffffff1614610685576040517f08c379a000000000000000000000000000000000000000000000000000000000815260040161067c9061100a565b60405180910390fd5b6005600081548092919061069890610d03565b91905055506000600360006005548152602001908152602001600020819055507f5b99266cc6f584b3f536e8cd5d2d06f8afe3bc98a1d9e9015386217433d85b9c600554826040516106eb92919061102a565b60405180910390a150565b60036020528060005260406000206000915090505481565b60055481565b600860009054906101000a900473ffffffffffffffffffffffffffffffffffffffff1681565b6007805461074790610eac565b80601f016020809104026020016040519081016040528092919081815260200182805461077390610eac565b80156107c05780601f10610795576101008083540402835291602001916107c0565b820191906000526020600020905b8154815290600101906020018083116107a357829003601f168201915b505050505081565b600860009054906101000a900473ffffffffffffffffffffffffffffffffffffffff1673ffffffffffffffffffffffffffffffffffffffff163373ffffffffffffffffffffffffffffffffffffffff1614610858576040517f08c379a000000000000000000000000000000000000000000000000000000000815260040161084f90610df1565b60405180910390fd5b60016004546108679190610d4b565b6004819055506000600454905081600080838152602001908152602001600020908161089391906111f1565b5060016002600083815260200190815260200160002060006101000a81548160ff0219169083151502179055507ff5ce14e2b6f6a51b17f7bd338d12d5b91594d919f236abfb1a4f0c719fdc847a816040516108ef9190610914565b60405180910390a15050565b6000819050919050565b61090e816108fb565b82525050565b60006020820190506109296000830184610905565b92915050565b6000604051905090565b600080fd5b600080fd5b61094c816108fb565b811461095757600080fd5b50565b60008135905061096981610943565b92915050565b6000806040838503121561098657610985610939565b5b60006109948582860161095a565b92505060206109a58582860161095a565b9150509250929050565b6000602082840312156109c5576109c4610939565b5b60006109d38482850161095a565b91505092915050565b600080fd5b600080fd5b6000601f19601f8301169050919050565b7f4e487b7100000000000000000000000000000000000000000000000000000000600052604160045260246000fd5b610a2f826109e6565b810181811067ffffffffffffffff82111715610a4e57610a4d6109f7565b5b80604052505050565b6000610a6161092f565b9050610a6d8282610a26565b919050565b600067ffffffffffffffff821115610a8d57610a8c6109f7565b5b610a96826109e6565b9050602081019050919050565b82818337600083830152505050565b6000610ac5610ac084610a72565b610a57565b905082815260208101848484011115610ae157610ae06109e1565b5b610aec848285610aa3565b509392505050565b600082601f830112610b0957610b086109dc565b5b8135610b19848260208601610ab2565b91505092915050565b600060208284031215610b3857610b37610939565b5b600082013567ffffffffffffffff811115610b5657610b5561093e565b5b610b6284828501610af4565b91505092915050565b600073ffffffffffffffffffffffffffffffffffffffff82169050919050565b6000610b9682610b6b565b9050919050565b610ba681610b8b565b82525050565b6000602082019050610bc16000830184610b9d565b92915050565b600081519050919050565b600082825260208201905092915050565b60005b83811015610c01578082015181840152602081019050610be6565b60008484015250505050565b6000610c1882610bc7565b610c228185610bd2565b9350610c32818560208601610be3565b610c3b816109e6565b840191505092915050565b60006020820190508181036000830152610c608184610c0d565b905092915050565b7f536f7272792c20596f752063616e7420566f7465000000000000000000000000600082015250565b6000610c9e601483610bd2565b9150610ca982610c68565b602082019050919050565b60006020820190508181036000830152610ccd81610c91565b9050919050565b7f4e487b7100000000000000000000000000000000000000000000000000000000600052601160045260246000fd5b6000610d0e826108fb565b91507fffffffffffffffffffffffffffffffffffffffffffffffffffffffffffffffff8203610d4057610d3f610cd4565b5b600182019050919050565b6000610d56826108fb565b9150610d61836108fb565b9250828201905080821115610d7957610d78610cd4565b5b92915050565b7f456c656374696f6e436f6d6d6973696f6e2063616e206f6e6c792063616c6c2060008201527f746869732066756e6374696f6e00000000000000000000000000000000000000602082015250565b6000610ddb602d83610bd2565b9150610de682610d7f565b604082019050919050565b60006020820190508181036000830152610e0a81610dce565b9050919050565b7f536f7272792c20596f7520617265206e6f742072656769737465726564000000600082015250565b6000610e47601d83610bd2565b9150610e5282610e11565b602082019050919050565b60006020820190508181036000830152610e7681610e3a565b9050919050565b7f4e487b7100000000000000000000000000000000000000000000000000000000600052602260045260246000fd5b60006002820490506001821680610ec457607f821691505b602082108103610ed757610ed6610e7d565b5b50919050565b60008190508160005260206000209050919050565b60008154610eff81610eac565b610f098186610bd2565b94506001821660008114610f245760018114610f3a57610f6d565b60ff198316865281151560200286019350610f6d565b610f4385610edd565b60005b83811015610f6557815481890152600182019150602081019050610f46565b808801955050505b50505092915050565b60006020820190508181036000830152610f908184610ef2565b905092915050565b7f4f6e6c7920456c656374696f6e436f6d6d6973696f6e2063616e2063616c6c2060008201527f746869732066756e6374696f6e2e000000000000000000000000000000000000602082015250565b6000610ff4602e83610bd2565b9150610fff82610f98565b604082019050919050565b6000602082019050818103600083015261102381610fe7565b9050919050565b600060408201905061103f6000830185610905565b81810360208301526110518184610c0d565b90509392505050565b60006020601f8301049050919050565b600082821b905092915050565b6000600883026110a77fffffffffffffffffffffffffffffffffffffffffffffffffffffffffffffffff8261106a565b6110b1868361106a565b95508019841693508086168417925050509392505050565b6000819050919050565b60006110ee6110e96110e4846108fb565b6110c9565b6108fb565b9050919050565b6000819050919050565b611108836110d3565b61111c611114826110f5565b848454611077565b825550505050565b600090565b611131611124565b61113c8184846110ff565b505050565b5b8181101561116057611155600082611129565b600181019050611142565b5050565b601f8211156111a55761117681610edd565b61117f8461105a565b8101602085101561118e578190505b6111a261119a8561105a565b830182611141565b50505b505050565b600082821c905092915050565b60006111c8600019846008026111aa565b1980831691505092915050565b60006111e183836111b7565b9150826002028217905092915050565b6111fa82610bc7565b67ffffffffffffffff811115611213576112126109f7565b5b61121d8254610eac565b611228828285611164565b600060209050601f83116001811461125b5760008415611249578287015190505b61125385826111d5565b8655506112bb565b601f19841661126986610edd565b60005b828110156112915784890151825560018201915060208501945060208101905061126c565b868310156112ae57848901516112aa601f8916826111b7565b8355505b6001600288020188555050505b50505050505056fea2646970667358221220446aba785728e4288624e84872335d1c6cf464027dc72e7262f4b90d4a4bf8ed64736f6c63430008130033",
  "immutableReferences": {},
  "source": "// SPDX-License-Identifier: MIT\r\npragma solidity^0.8.17 ; \r\ncontract VotingMachine { \r\n   mapping(uint256 => string) Voter ; // for use in registration\r\n   // voter id => fngerprint \r\n   mapping(uint256 =>  bool) VoterDidVoted ; // initialised in  registration , updated in voting process\r\n   mapping(uint256 =>  bool) VoterDidRegistered ; // initialised in  registration , updated in voting process\r\n   // voter id => voting right ; \r\n   mapping(uint256 => uint256) public CandidateVoteCount ; // used in voting process\r\n   // candidate id => vote count ;\r\n\r\n   uint256 public  VoterCount = 999999999999999  ; // updated in registration \r\n   uint256 public  CandidateCount  ; // updated in registration \r\n   uint256 public  TotalVoteCount  ;  // updated in voting process\r\n   string  public TokenName = \"Vote\" ; \r\n\r\n   event CandidateList(uint256 id , string symbol ); // used in candidate registration\r\n   event FingerPrint(string data ); // used in candidate registration\r\n   event VoterRegister(uint256 voterId ); // used in candidate registration\r\n\r\n   address public Owner ; \r\n\r\n   constructor(){\r\n        Owner = msg.sender ; \r\n     }\r\n\r\n   function AddCandidate(string memory symbol) public{\r\n         require(msg.sender == Owner , \"Only ElectionCommision can call this function.\");\r\n         CandidateCount++ ; \r\n         CandidateVoteCount[CandidateCount] = 0 ;\r\n         emit CandidateList(CandidateCount,  symbol );\r\n     }\r\n    \r\n  \r\n     function AddVoter(string memory fingerprint) public {\r\n        require( msg.sender == Owner , \"ElectionCommision can only call this function\");\r\n        VoterCount = VoterCount + 1 ; \r\n        uint256 voterId = VoterCount ; \r\n        Voter[voterId] = fingerprint ; \r\n        VoterDidRegistered[voterId] = true ; \r\n           emit VoterRegister(voterId); // used in candidate registration\r\n\r\n \r\n     }\r\n\r\n     function Reset() public  {\r\n      require( msg.sender == Owner , \"ElectionCommision can only call this function\");\r\n      for(uint256 i = 999999999999999 ; i < VoterCount + 1 ; i++){\r\n         VoterDidVoted[i] = false ; \r\n      }\r\n      for(uint256 i = 0 ; i < CandidateCount ; i++){\r\n         CandidateVoteCount[i] = 0 ; \r\n      }\r\n      TotalVoteCount = 0 ;\r\n     }\r\n\r\n   function VerifyVoter(uint256 voterID) public  { \r\n      require( msg.sender == Owner , \"ElectionCommision can only call this function\");\r\n      require(VoterDidRegistered[voterID] , \"Sorry, You are not registered\");\r\n      require(!VoterDidVoted[voterID] , \"Sorry, You cant Vote\");\r\n      emit FingerPrint( Voter[voterID]);\r\n\r\n   }\r\n     function Vote(uint256 _candidate , uint256 _voter) public { \r\n            require (msg.sender == Owner);\r\n            require(!VoterDidVoted[_voter] , \"Sorry, You cant Vote\");\r\n            CandidateVoteCount[_candidate]++ ; \r\n            VoterDidVoted[_voter] = true ; \r\n            TotalVoteCount = TotalVoteCount + 1 ; \r\n     }\r\n}",
  "sourcePath": "C:\\Users\\9165p\\OneDrive\\Desktop\\Desktoprchi\\new voting\\voting\\src\\contracts\\Vote.sol",
  "compiler": {
    "name": "solc",
    "version": "0.8.19+commit.7dd6d404.Emscripten.clang"
  },
  "schemaVersion": "3.4.11",
  "updatedAt": "2023-03-05T05:56:16.037Z",
  "networkType": "ethereum",
  "devdoc": {
    "kind": "dev",
    "methods": {},
    "version": 1
  },
  "userdoc": {
    "kind": "user",
    "methods": {},
    "version": 1
  }
}